:100000000C94A2110C94D3110C94D3110C94D31111
:100010000C94D3110C94D3110C94D3110C94D311D0
:100020000C94D3110C94D3110C94D3110C94D311C0
:100030000C94D3110C9483EE0C94D3110C94D31123
:100040000C94D3110C94C75D0C94D3110C94D31160
:100050000C94D3110C94D3110C94A5590C9455EA1B
:100060000C94D3110C943ED80C94D3110C94D3114E
:100070000C94D3110C94D3110C94D3110C94D31170
:100080000C941A850C94D3110C94D3110C94D311A5
:100090000C94D3110C94D3110C94D3110C941BE633
:1000A0000C94D3110C94D3110C9447850C94D31158
:1000B0000C94D3110C94D3110C94D3110C9474851B
:1000C0000C94D3110C94D3110C94D3110C94D31120
:1000D0000C94D3110C94D3110C94D3110C94D31110
:1000E0000C94D311105A1F5A3B5A4A5A645A735AE5
:1000F0008D5A915A995AAAAFAAAFB5AFB5AFB5AF5D
:10010000C0AFC0AFC0AFD5AFCBAFCBAFCBAFF3E8D5
:10011000F8E8FDE807E911E98AE91BE923E92BE999
:1001200035E93FE949E958E962E98AE96CE976E9A4
:1001300080E9ACE9AFE99EE9A2E9A8E9E6E9B3E91B
:10014000B7E9BDE9C1E9C5E9CBE9CFE9D3E9E6E91A
:10015000D9E9DDE9E1E9084AD73B3BCE016E84BC31
:10016000BFFDC12F3D6C74319ABD56833DDA3D0011
:10017000C77F11BED9E4BB4C3E916BAAAABE00005A
:1001800000803F05A84CCDB2D44EB93836A9020C38
:1001900050B9918688083CA6AAAA2ABE0000008011
:1001A0003F00436172642072656D6F766564004341
:1001B00061726420696E736572746564002D2D3AF6
:1001C0002D2D002D2D2D005344004C444D206D6FDE
:1001D000646500464646206D6F646500012000019D
:1001E0002000426162797374657070696E67205A8D
:1001F000004261627973746570205A00466C6F77B3
:1002000000466C6F770046616E2073706565640010
:1002100046616E20737065656400426564004265E6
:1002200064004E6F7A7A6C65004E6F7A7A6C650066
:100230005370656564005370656564004D61696E57
:100240000047323800580059005A004578747275DA
:10025000646572004578747275646572004D6F76DE
:1002600065205A004D6F76652059004D6F766520E8
:1002700058004D6F76652061786973004D6F766523
:1002800020302E316D6D004D6F766520316D6D0023
:100290004D6F76652031306D6D0050726570617202
:1002A0006500473238005A20686F6D652000506F36
:1002B000736974696F6E202D3E00473120583530C8
:1002C00020593530205A3020463130303030004708
:1002D00031205A3130204631303030300047312023
:1002E000582D353020593530205A302046313030A5
:1002F0003030004731205A313020463130303030F4
:1003000000473120583020592D3730205A302046B0
:100310003130303030004731205A313020463130D2
:10032000303030004731205830205930205A3020AA
:10033000463130303030004731205A31302046319C
:10034000303030300047323800436F6F6C646F7765
:100350006E005072656865617420414253005072AE
:10036000656865617420504C41004D616E75616C2B
:10037000204C6576656C696E67004D6F64696679BF
:10038000205A204D4158004D6F7665206178697381
:10039000004C6F61642046696C616D656E74004746
:1003A00036363700473636370047323800417574E5
:1003B0006F20686F6D65004D383400446973616269
:1003C0006C65207374657070657273004D61696E41
:1003D000004D313036204C3330004D313036204C1A
:1003E00031300053746F7265206D656D6F727900E6
:1003F00042656400426564004E6F7A7A6C65004E17
:100400006F7A7A6C650046616E2073706565640072
:1004100046616E2073706565640054656D70657229
:1004200061747572650053746F7265206D656D6FD0
:1004300072790042656400426564004E6F7A7A6C9E
:1004400065004E6F7A7A6C650046616E2073706548
:1004500065640046616E2073706565640054656D67
:10046000706572617475726500507265686561745B
:100470002041425320636F6E66005072656865616B
:100480007420504C4120636F6E660046414E2074CC
:10049000797065005049442D43005049442D430074
:1004A0005049442D44005049442D44005049442DA6
:1004B00049005049442D49005049442D50005049AD
:1004C000442D500020022046616374002002204623
:1004D000616374002002204D6178002002204D618C
:1004E00078002002204D696E002002204D696E00C8
:1004F0004F6666004F6E20004F6666004F6E20000C
:100500004175746F74656D700046616E207370651F
:1005100065640046616E20737065656400426564C1
:1005200000426564004E6F7A7A6C65004E6F7A7A8D
:100530006C6500416476616E6365642073657474F4
:10054000696E67730044656C7461207365747469C7
:100550006E6773004F6666004F6E20004F66660040
:100560004F6E20004F766572726964652042454483
:1005700000447269766572206375722E0044726958
:10058000766572206375722E004573746570732FE3
:100590006D6D004573746570732F6D6D005A7374C3
:1005A0006570732F6D6D005A73746570732F6D6D68
:1005B000005973746570732F6D6D00597374657095
:1005C000732F6D6D005873746570732F6D6D0058C7
:1005D00073746570732F6D6D00412D726574726157
:1005E000637400412D7265747261637400416D61C2
:1005F00078206500416D6178206500416D6178204B
:100600007A00416D6178207A00416D61782079002F
:10061000416D6178207900416D6178207800416DED
:1006200061782078005654726176206D696E0056AC
:1006300054726176206D696E00566D696E00566D5C
:10064000696E00566D6178206500566D6178206591
:1006500000566D6178207A00566D6178207A0056D8
:100660006D6178207900566D6178207900566D6152
:1006700078207800566D617820780056652D6A657F
:10068000726B0056652D6A65726B005678792D6A1B
:1006900065726B005678792D6A65726B00416363F1
:1006A000656C00416363656C005A204F6666736534
:1006B00074005A204F666673657400416476616EFB
:1006C0006365642073657474696E67730041555483
:1006D0004F524553555252004155544F5245535570
:1006E000525200436C6179204D6F64652000436C69
:1006F0006179204D6F6465200044656661756C7496
:10070000206F6B00524553455420504152414D2EAD
:100710003F2000524553455420504152414D2E3FF9
:100720002000526573746F7265206661696C736135
:100730006665004C6F6164206D656D6F7279005362
:10074000746F7265206D656D6F7279004C444D2039
:100750006D6F64652028636C617929004175746F41
:1007600020526573757272656374696F6E004D6FA8
:1007700074696F6E0054656D706572617475726531
:10078000004D61696E0053544F505045442E200077
:1007900041524520594F5520535552453F20004165
:1007A000524520594F5520535552453F20004D3258
:1007B00034004D323320257300052E2E004D616923
:1007C0006E00496E666F004E6F2053442063617265
:1007D00064005072696E742066726F6D205344001D
:1007E0004D3300526573757272656374696F6E0084
:1007F00053746F70207072696E74004D32005374C0
:100800006F7020616E642053617665004D36303024
:1008100000506175736520666F722066696C616D4A
:10082000656E74004D3235005061757365207072CD
:10083000696E7400416476616E63656420736574EB
:1008400074696E67730050726570617265005475EB
:100850006E6500496E666F2073637265656E004554
:1008600072723A204D415854454D50204245440043
:1008700054656D7065726174757265206865617428
:1008800065642062656420737769746368656420B9
:100890006F66662E204D415854454D502074726944
:1008A000676765726564202121004572723A204DA8
:1008B000494E54454D503A206361626C61676769E7
:1008C0006F003A2045787472756465722073776999
:1008D0007463686564206F66662E204D494E5445EA
:1008E0004D50207472696767657265642021004508
:1008F00072723A204D415854454D50003A20457887
:1009000074727564657220737769746368656420B6
:100910006F66662E204D415854454D5020747269C3
:1009200067676572656420210048656174696E6758
:10093000206661696C656400202D20496E76616CCB
:100940006964206578747275646572206E756D6275
:100950006572202100504944204175746F74756E92
:10096000652066696E69736865642120507574201E
:10097000746865206C617374204B702C204B692067
:10098000616E64204B6420636F6E7374616E747368
:100990002066726F6D2061626F766520696E746F7C
:1009A00020436F6E66696775726174696F6E2E6839
:1009B00000504944204175746F74756E65206661FE
:1009C000696C6564212074696D656F7574002040E1
:1009D0003A006F6B20543A006F6B20423A00504946
:1009E00044204175746F74756E65206661696C652D
:1009F00064212054656D7065726174757265207430
:100A00006F6F206869676800204B643A2000204BB4
:100A1000693A2000204B703A200020436C617373C8
:100A200069632050494420002054753A2000204B2F
:100A3000753A2000206D61783A2000206D696E3A89
:100A4000200020643A200020626961733A2000652A
:100A500063686F3A004572726F723A0070012C0140
:100A600090012701B0012201C0011D01F001180110
:100A70001002130130020E0160020901900204010C
:100A8000C002FF000003FA004003F5008003F000FD
:100A9000D003EB002004E6007004E100E004DC0079
:100AA0004005D700C005D2004006CD00D006C800E2
:100AB0008007C3003008BE00F008B900C009B400C8
:100AC000B00AAF00B00BAA00D00CA500000EA00029
:100AD000500F9B00C01096005012910000148C0023
:100AE000C0158700B0178200B0197D00D01B7800B8
:100AF000001E730040206E0090226900F024640004
:100B000040275F0090295A00E02B5500102E50001E
:100B100020304B0010324600E033410090353C005D
:100B20001037370070383200A0392D00B03A280055
:100B3000A03B2300603C1E00103D1900903D1400B6
:100B4000103E0F00703E0A00C03E0500003F00004E
:100B5000656E6473746F7073206869743A205A000C
:100B6000205A3A00656E6473746F707320686974FC
:100B70003A20590020593A00656E6473746F70739F
:100B8000206869743A20580020583A00656E6473F2
:100B9000746F7073206869743A200024F4D4305064
:100BA000C38E20C2A24017828B7011127A910D81E0
:100BB0006CD90AA861E108C7586607615143061E4F
:100BC0004B5D05C145A7041A411104093D98037105
:100BD0003931034036DB0265339102D43054028050
:100BE0002E1D02632CEE01752AC501B028A001104C
:100BF0002781018F2564012B244B01E0223401ACB5
:100C0000211F018D200D01801FFC00841EED009727
:100C10001DDF00B81CD200E61BC600201BBC006410
:100C20001AB200B219A8000A19A0006A189900D1D6
:100C300017910040178B00B516840031167E00B363
:100C40001579003A157300C7146F0058146A00EE46
:100C50001366008813630025135E00C7125B006CE7
:100C600012570015125400C111510070114F00218C
:100C7000114B00D61049008D104700461044000269
:100C8000104200C00F4000800F3E00420F3C0006A3
:100C90000F3B00CB0E3800930E37005C0E3500275B
:100CA0000E3400F30D3200C10D3100900D300060A4
:100CB0000D2E00320D2D00050D2C00D90C2B00AE91
:100CC0000C2900850C29005C0C2700350C27000E30
:100CD0000C2600E80B2400C40B2400A00B23007D8D
:100CE0000B23005A0B2100390B2100180B2000F8B0
:100CF0000A1F00D90A1E00BB0A1E009D0A1D0080A3
:100D00000A1D00630A1C00470A1B002C0A1B001165
:100D10000A1A00F7091A00DD091900C4091900AB05
:100D2000091900920917007B091800630917004C84
:100D300009160036091600200916000A091500F5E3
:100D4000081500E0081400CC081400B8081400A42A
:100D5000081400900813007D0812006B0813005857
:100D6000081200460812003408110023081100126E
:100D700008110001081100F0071000E0071000D072
:100D8000071000C0071000B0070F00A10710009166
:100D9000070E0083070F0074070F0065070E00574A
:100DA000070E0049070E003B070D002E070E00201E
:100DB000070D0013070D0006070D00F9060C00EDE6
:100DC000060D00E0060C00D4060C00C8060C00BCA2
:100DD000060C00B0060C00A4060B0099060C008D52
:100DE000060B0082060B0077060B006C060B0061F9
:100DF000060A0057060B004C060A0042060A003895
:100E0000060A002E060A0024060A001A060A001026
:100E100006090007060A00FD050900F4050900EBB4
:100E2000050900E2050900D9050900D0050900C738
:100E3000050900BE050900B5050800AD050800A5B7
:100E40000509009C050800940508008C050800842D
:100E50000508007C050800740508006C050700659E
:100E60000508005D050700560508004E0507004708
:100E70000507004005080038050700310507002A6E
:100E8000050700230507001C050600160507000FCF
:100E90000507000805060002050700FB040600F52B
:100EA000040700EE040600E8040600E2040700DB85
:100EB000040600D5040600CF040600C9040600C3DA
:100EC000040600BD040600B7040600B1040500AC2A
:100ED000040600A6040600A00405009B0406009575
:100EE000040500900406008A0405008504050080BE
:100EF0000406007A04050075040500700405006B03
:100F000004050066040500610405005C0405005743
:100F1000040500520405004D040500480405004383
:100F20000405003E0404003A0405003504050030C1
:100F30000404002C04050027040400230405001EFB
:100F40000404001A04040016040500110404000D32
:100F5000040400090405000404040000040400FC67
:100F6000030400F8030400F4030400F0030400EC9D
:100F7000030400E8030400E4030400E0030400DCCD
:100F8000030400D8030400D4030400D0030400CCFD
:100F9000030400C8030300C503030024F404D9209C
:100FA0001BC40C5C0E9804C4095F0265077101F450
:100FB00005F900FB04B30048048700C10369005829
:100FC00003550003034500BE023A0084023100537A
:100FD000022A002902250004022000E4011C00C8A6
:100FE000011900AF0117009801140084011300716A
:100FF0000110006101100051010E0043010D003687
:10100000010B002B010B0020010B00150109000C46
:1010100001090003010800FB000800F3000800EBD1
:10102000000700E4000600DE000600D8000600D23B
:10103000000600CC000500C7000500C2000500BD89
:10104000000400B9000400B5000400B1000400ADC4
:10105000000400A9000400A5000300A20003009FF3
:101060000004009B00030098000300950002009319
:10107000000300900003008D0002008B0003008835
:101080000002008600020084000300810002007F4D
:101090000002007D0002007B000200790002007760
:1010A000000100760002007400020072000100716D
:1010B0000002006F0002006D0001006C0002006A77
:1010C0000001006900020067000100660001006580
:1010D0000001006400020062000100610001006084
:1010E0000001005F0002005D0001005C0001005B88
:1010F0000001005A0001005900010058000100578A
:101100000001005600010055000100540001005389
:101110000000005300010052000100510001005086
:101120000001004F0001004E0000004E0001004D84
:101130000001004C0001004B0000004B0001004A80
:10114000000100490001004800000048000100477C
:101150000001004600000046000100450000004577
:101160000001004400010043000000430001004270
:101170000000004200010041000000410001004069
:101180000001003F0000003F0001003E0000003E63
:101190000001003D0000003D0001003C0000003C5B
:1011A0000000003C0001003B0000003B0001003A51
:1011B0000000003A00010039000000390001003849
:1011C0000000003800000038000100370000003740
:1011D0000001003600000036000000360001003536
:1011E000000000350000003500010034000000342C
:1011F0000000003400010033000000330000003321
:101200000001003200000032000000320001003115
:10121000000000310000003100010030000000300B
:10122000000000300001002F0000002F0000002F00
:101230000000002F0001002E0000002E0000002EF4
:101240000001002D0000002D0000002D0000002DE9
:101250000001002C0000002C0000002C0000002CDD
:101260000001002B0000002B0000002B0000002BD1
:101270000001002A0000002A0000002A0000002AC5
:1012800000010029000000290000002900000029B9
:1012900000000029000100280000002800000028AC
:1012A000000000280000002800010027000000279F
:1012B0000000002700000027000000270001002692
:1012C0000000002600000026000000260000002686
:1012D0000001002500000025000000250000002579
:1012E000000000250000002500010024000000246B
:1012F000000000240000002400000024000100235E
:101300000000002300000023000000230000002351
:101310000000002300000023000100220000002242
:101320000000002200000022000000220000002235
:101330000001002100000021000000210000002128
:101340000000002100000021000000210001002019
:10135000000000200000002000000020000000200D
:101360000000002000000020000000200001001FFD
:101370000000001F0000001F0000001F0000001FF1
:101380000000001F0000001F0001001E0000001EE2
:101390000000001E0000001E0000006563686F3A38
:1013A0000020636F6C6420657874727573696F6E6A
:1013B0002070726576656E746564006563686F3A67
:1013C0000043616E6E6F7420656E74657220737574
:1013D000626469723A20004D3234004D3233202568
:1013E00073006175746F25692E67006572726F7284
:1013F0002077726974696E6720746F2066696C6506
:10140000004E6F74205344207072696E74696E6769
:10141000002F005344207072696E74696E672062F9
:1014200079746520002E0044656C6574696F6E20C8
:101430006661696C65642C2046696C653A200046DB
:10144000696C652064656C657465643A002E006F94
:1014500070656E206661696C65642C2046696C65F8
:101460003A200057726974696E6720746F2066694C
:101470006C653A20002E006F70656E206661696CA5
:1014800065642C2046696C653A20002E006F7065FB
:101490006E206661696C65642C2046696C653A2033
:1014A0000046696C652073656C656374656400460D
:1014B000696C6520436F727275707465642E0020CC
:1014C00053697A653A200046696C65206F70656ED5
:1014D00065643A20002E006F70656E206661696C4D
:1014E00065642C2046696C653A20004E6F77206653
:1014F000726573682066696C653A20004E6F7720CC
:10150000646F696E672066696C653A2000222070FE
:101510006F73002220706172656E743A2200535519
:1015200042524F5554494E452043414C4C20746122
:10153000726765743A2200747279696E6720746FFD
:101540002063616C6C207375622D67636F64652026
:1015500066696C6573207769746820746F6F206D9D
:10156000616E79206C6576656C732E204D41582034
:101570006C6576656C2069733A0053442063617230
:1015800064206F6B006F70656E526F6F74206661C0
:10159000696C656400766F6C756D652E696E697433
:1015A000206661696C656400534420696E6974202B
:1015B0006661696C006563686F3A004572726F72AC
:1015C0003A007C3C3E5E2B3D3F2F5B5D3B2C2A224C
:1015D0005C000A00207A3A200020793A2000207826
:1015E0003A20004265640046696E652072696C6548
:1015F00076616D656E7469204736363720286279CA
:1016000020526F73736F6E65742900205A00205941
:101610000020204D363636205800436F6E666967CD
:101620007572617A696F6E65206170706C69636153
:10163000746120646F706F2071756573746F2063BF
:1016400069636C6F3A00205300204C00204D363601
:1016500035205200436F7272657A696F6E6520643F
:1016600069616D6574726F207065722063656E7458
:10167000726F20626173736F3A00205300204C0038
:10168000204D363635205200436F7272657A696F8D
:101690006E65206469616D6574726F20706572207B
:1016A00063656E74726F20616C746F3A00205A3AF1
:1016B0000020593A0020583A0043656E74726F3A20
:1016C0000052696C6576616D656E746F20286D6D72
:1016D000293A00496E697A696F20692072696C65E0
:1016E00076616D656E74692E2E2E00204469616DE1
:1016F0006574726F207374616D70616E74652028FB
:101700006D6D293A004C756E6768657A7A61206262
:1017100072616363696120286D6D293A00205A0067
:1017200020590020580041747475616C65207369FC
:101730007475617A696F6E6520656E6473746F701D
:101740007320286D6D293A00415454454E5A494F33
:101750004E45212056657273696F6E65206265740F
:10176000612C206D6F6E69746F72617265206C619F
:10177000206D61636368696E6120647572616E7467
:1017800065206C2765736563757A696F6E652E2EAB
:101790002E00627920526F73736F6E657400436F11
:1017A0006E6669677572617A696F6E6920617574BA
:1017B0006F6D6174696368652066696E6520636F2B
:1017C0007273612065206469616D6574726F005386
:1017D000544F505045442E20005072696E7465720B
:1017E0002073746F707065642064756520746F2059
:1017F0006572726F72732E20466978207468652056
:101800006572726F7220616E6420757365204D3948
:10181000393920746F20726573746172742E2028B8
:1018200054656D706572617475726520697320729C
:10183000657365742E205365742069742061667425
:1018400065722072657374617274696E6729004BEA
:10185000494C4C45442E20005072696E74657220CC
:1018600068616C7465642E206B696C6C2829206338
:10187000616C6C656421004D363030004558545F12
:1018800046494C414D454E54205472696767657214
:101890006564210054696D656F75742048656174D5
:1018A0006572004F7574206F6620506C6174652EF0
:1018B000004F7574206F6620506C6174652E006F48
:1018C0006B00526573656E643A2000205072696E39
:1018D00074696E67202020202020002052657375D7
:1018E0007272656374696E672E2E2E002200556E2B
:1018F0006B6E6F776E20636F6D6D616E643A202240
:10190000004368616E67652066696C616D656E7421
:10191000005A204F6666736574203A20007A5F6D26
:1019200061783A200070726F6265207A3A20005A1E
:10193000204F6666736574005A204F66667365743F
:10194000206F6B007A5F6D61783A200070726F6271
:1019500065207A3A2000795F6D61783A2000785FDF
:101960006D61783A2000205A3A0020593A0020430D
:101970006F756E7420583A200020453A00205A3A7C
:101980000020593A00583A004649524D57415245B5
:101990005F4E414D453A4D61726C696E2056313B48
:1019A00020537072696E7465722F6772626C206D5D
:1019B000617368757020666F722067656E362046A9
:1019C00049524D574152455F55524C3A68747470B4
:1019D0003A2F2F7777772E77617370726F6A65630E
:1019E000742E69742F2050524F544F434F4C5F5602
:1019F000455253494F4E3A312E30204D41434849CC
:101A00004E455F545950453A44656C7461204558C1
:101A10005452554445525F434F554E543A31205528
:101A20005549443A30303030303030302D3030305D
:101A3000302D303030302D303030302D30303030AF
:101A400030303030303030300A0044656C74612002
:101A50004F66662E0044656C74612072656164791E
:101A60002E0042656420646F6E652E0020423A00AD
:101A700020453A00543A0042656420486561746923
:101A80006E672E0048656174696E6720646F6E65CD
:101A90002E0020573A0020453A00543A004865612C
:101AA00074696E672E2E2E002042403A0020403A84
:101AB00000202F003A00205400202F0020423A003E
:101AC000202F006F6B20543A002569206D696E2C21
:101AD00020256920736563005061757365207072FD
:101AE000696E7400456E642066696C65206C69736C
:101AF0007400426567696E2066696C65206C697365
:101B000074004E6F206D6F76652E00536176696E9E
:101B10006700526573756D696E67207072696E74C7
:101B2000005761697420666F7220757365722E2E7E
:101B30002E000A00205A3A200020593A200020584E
:101B40003A200042656400536C6565702E2E2E00AD
:101B5000256920686F757273202569206D696E751F
:101B600074657300446F6E65207072696E74696E7F
:101B7000672066696C650053544F505045442E20D1
:101B8000005072696E7465722073746F7070656452
:101B90002064756520746F206572726F72732E20D9
:101BA00046697820746865206572726F7220616E74
:101BB0006420757365204D39393920746F20726542
:101BC00073746172742E202854656D70657261742F
:101BD0007572652069732072657365742E20536574
:101BE0007420697420616674657220726573746113
:101BF0007274696E6729004E6F204C696E65204EC5
:101C0000756D626572207769746820636865636BBF
:101C100073756D2C204C617374204C696E653A208D
:101C2000004E6F20436865636B73756D2077697430
:101C300068206C696E65206E756D6265722C204C33
:101C4000617374204C696E653A2000636865636B4C
:101C500073756D206D69736D617463682C204C61C0
:101C60007374204C696E653A20004C696E65204E95
:101C7000756D626572206973206E6F74204C61739C
:101C800074204C696E65204E756D6265722B312C27
:101C9000204C617374204C696E653A20004D3131DF
:101CA0003000446F6E6520736176696E67206669E7
:101CB0006C652E006F6B004D323900454550524F18
:101CC0004D204661696C7572652100454550524F43
:101CD0004D204661696C75726521002020506C6151
:101CE0006E6E657242756666657242797465733AA6
:101CF00020002046726565204D656D6F72793A202F
:101D000000417072203239203230313800436F6D1B
:101D100070696C65643A20002844656E6E697320B2
:101D2000506174656C6C612028C390656E292C200D
:101D3000574153502050524F4A4543542044656CFC
:101D400074612032307834302900207C2041757451
:101D5000686F723A2000417072203239203230317F
:101D6000382031363A35343A313900204C617374B9
:101D700020557064617465643A2000312E302E3035
:101D8000002D57617370726F6A65637420004D6136
:101D9000726C696E0020536F6674776172652052B1
:101DA0006573657400205761746368646F672052BF
:101DB00065736574002042726F776E206F757420B2
:101DC0005265736574002045787465726E616C208D
:101DD000526573657400506F776572557000737447
:101DE000617274002200656E717565696E672022EC
:101DF000002200656E717565696E67202200010121
:101E0000010000A0400000A0400000A04000005CD5
:101E10004300005C430040DD430000000000000080
:101E2000000040DD430000DC420000DC420040DDF9
:101E3000430000DCC20000DCC200000000656368F3
:101E40006F3A004572726F723A0048617264636F54
:101E50006465642044656661756C742053657474B0
:101E6000696E6773204C6F616465640053746F72B0
:101E700065642073657474696E677320726574722B
:101E80006965766564002044002049002020204DCB
:101E90003330312050005049442073657474696EAA
:101EA00067733A00204D00205A00205A002043005A
:101EB00020420020410020530020520020204D36B7
:101EC0003635204C0044656C746120736574746908
:101ED0006E67733A204C3D64656C74615F64696140
:101EE000676F6E616C5F726F642C20523D64656C2D
:101EF00074615F7261646975732C20533D64656C15
:101F000074615F7365676D656E74735F7065725F32
:101F10007365636F6E6400205A0020590020204DC5
:101F2000363636205800456E6473746F70206164D5
:101F30006A757374656D656E7420286D6D293A003D
:101F4000205A0020590020204D32303620580048B9
:101F50006F6D65206F666673657420286D6D293A14
:101F600000204500205A0020580020420020540044
:101F700020204D323035205300416476616E636518
:101F800064207661726961626C65733A20533D4DDD
:101F9000696E20666565647261746520286D6D2FB9
:101FA00073292C20543D4D696E2074726176656CE6
:101FB00020666565647261746520286D6D2F7329D4
:101FC0002C20423D6D696E696D756D207365676D7E
:101FD000656E742074696D6520286D73292C2058F6
:101FE0003D6D6178696D756D205859206A65726B19
:101FF00020286D6D2F73292C20205A3D6D61786942
:102000006D756D205A206A65726B20286D6D2F7377
:10201000292C2020453D6D6178696D756D20452026
:102020006A65726B20286D6D2F7329002054002083
:10203000204D323034205300416363656C6572611A
:1020400074696F6E3A20533D616363656C657261BC
:1020500074696F6E2C20543D7265747261637420D4
:10206000616363656C65726174696F6E0020450021
:10207000205A0020590020204D3230312058004D88
:102080006178696D756D20416363656C657261741B
:10209000696F6E20286D6D2F7332293A002045003C
:1020A000205A0020590020204D3230332058004D56
:1020B0006178696D756D20666565647261746573BC
:1020C00020286D6D2F73293A00204500205A0020EA
:1020D000590020204D393220580053746570732008
:1020E00070657220756E69743A0053657474696E18
:1020F00067732053746F726564006563686F3A009C
:1021000000000A0B02090C0D0E0807030401000071
:1021100000000000000000000000000000000000BF
:10212000000000000000000000000000121110007C
:10213000000000000000000000000000000000009F
:1021400000000000000001021020200808102040BC
:10215000102040800201020108040201010204086B
:1021600010204080804020100804020180040201F9
:102170008040201008040201080402010102040842
:10218000102040800102040810204080050505054C
:10219000070508080808020202020A0A08080404DF
:1021A000040401010101010101010303030303030D
:1021B0000303040707070C0C0C0C0C0C0C0C02029C
:1021C000020206060606060606060B0B0B0B0B0B99
:1021D0000B0B00002200250028002B002E003100F0
:1021E000340002010000050108010B01000021007C
:1021F000240027002A002D003000330001010000D8
:10220000040107010A01024E414E494E4954594901
:102210004E46CDCCCC3D0AD7233C17B7D13877CC2E
:102220002B329595E6241FB14F0A00002041000093
:10223000C84200401C4620BCBE4CCA1B0E5AAEC54C
:102240009D7400407A10F35A00A0724E18090010D5
:10225000A5D4E80000E87648170000E40B5402001B
:1022600000CA9A3B000000E1F50500008096980046
:10227000000040420F000000A0860100000010276F
:1022800000000000E80300000000640000000000FF
:102290000A00000000000100000000002C76D88831
:1022A000DC674F0823DFC1DFAE59E1B1B796E5E344
:1022B000E453C63AE651997696E8E6C28426EB895D
:1022C0008C9B62ED407C6FFCEFBC9C9F40F2BAA5FA
:1022D0006FA5F490055A2AF75C936B6CF9676DC192
:1022E0001BFCE0E40D47FEF520E6B500D0ED902E96
:1022F0000300943577050080841E080000204E0AF4
:10230000000000C80C333333330F986E1283114131
:10231000EF8D2114893BE65516CFFEE6DB18D184FC
:102320004B381BF77C1D901DA4BBE4242032847223
:102330005E228100C9F124ECA1E53D27EE3372D77E
:102340003CE53BD811241FBECFEFD1E2DEBFCDBFAD
:1023500000E00CBF17E0A0E0B2E0E4EFFAEF01E02C
:102360000BBF02C007900D92AC38B107D9F727E137
:10237000ACE8B7E001C01D92A337B207E1F713E262
:10238000C2E4D3E200E006C022970109FE010BBFC0
:102390000E9487F4CC33D10780E00807A9F70E9498
:1023A000E3EE0C9468FD0C9400004F925F926F92E4
:1023B0007F928F929F92AF92BF92CF92DF92EF92D5
:1023C000FF920F931F93CF93DF93CDB7DEB728977C
:1023D0000FB6F894DEBF0FBECDBF8C01DC014D906F
:1023E0005D906D907C90139714968D909D90AD901C
:1023F000BC9017971896CD90DD90ED90FC901B97B0
:1024000028A139A14AA15BA1C301B2010E942BF30B
:1024100069837A838B839C832CA53DA54EA55FA5FC
:10242000C501B4010E942BF39B01AC0169817A8143
:102430008B819C810E947DEF69837A838B839C834F
:1024400028AD39AD4AAD5BADC701B6010E942BF393
:102450009B01AC0169817A818B819C810E947DEF17
:1024600069837A838B839C832CA13DA14EA15FA1BC
:10247000C301B2010E942BF36D837E838F83988703
:1024800028A939A94AA95BA9C501B4010E942BF367
:102490009B01AC016D817E818F8198850E947DEFCB
:1024A0006D837E838F8398872CAD3DAD4EAD5FAD40
:1024B000C701B6010E942BF39B01AC016D817E81A7
:1024C0008F8198850E947DEF6D837E838F839887AF
:1024D0002C8D3D8D4E8D5F8DC301B2010E942BF37B
:1024E0002B013C0128A539A54AA55BA5C501B4016E
:1024F0000E942BF39B01AC01C301B2010E947DEF4E
:102500004B015C012CA93DA94EA95FA9C701B601E9
:102510000E942BF39B01AC01C501B4010E947DEF29
:10252000F801608371838283938389819A81AB816F
:10253000BC8184839583A683B7838D819E81AF817F
:10254000B88580879187A287B38728960FB6F894BD
:10255000DEBF0FBECDBFDF91CF911F910F91FF90D6
:10256000EF90DF90CF90BF90AF909F908F907F9033
:102570006F905F904F9008950F931F93CF93DF93C9
:10258000CDB7DEB72C970FB6F894DEBF0FBECDBF28
:10259000ECADFDAD80819181A281B381EAADFBAD4F
:1025A0004081518162817381E8ADF9AD0081118173
:1025B0002281338109831A832B833C834D835E837D
:1025C0006F83788789879A87AB87BC878DB79EB7DB
:1025D00084970FB6F8949EBF0FBE8DBFADB7BEB740
:1025E000119684E2FE01749601900D928A95E1F7AE
:1025F000CE010196DADE89819A81AB81BC81E8AD9A
:10260000F9AD80839183A283B3838D819E81AF8155
:10261000B885EAADFBAD80839183A283B3838985BE
:102620009A85AB85BC85ECADFDAD80839183A2839B
:10263000B3830FB6F894DEBF0FBECDBF2C960FB696
:10264000F894DEBF0FBECDBFDF91CF911F910F91E8
:102650000895FC0140E050E060E87FE3408351834F
:102660006283738314821582168217821086118604
:10267000128613861486158616861786408B518B14
:10268000628B738B148A158A168A178A108E118EA4
:10269000128E138E148E158E168E178E40A351A394
:1026A00062A373A308951092BD071092BE07109203
:1026B000BF071092C00786E19DE490930C028093BF
:1026C0000B0208951092690810926808109267082A
:1026D000109266088091AC029091AD029093B31273
:1026E0008093B212E0CFFB0160910B0270910C025B
:1026F0007093B5076093B4076091BD077091BE07F2
:102700007093B3076093B20762E060930A0267EBCD
:102710007AE370930C0260930B029093B10780935D
:10272000B007F093AF07E093AE07662757FD6095BB
:10273000762F4093AA075093AB076093AC07709332
:10274000AD07C901AA2797FDA095BA2F8093A607C8
:102750009093A707A093A807B093A90780819181C0
:10276000AA2797FDA095BA2F8093BD079093BE0727
:10277000A093BF07B093C0070895CF92DF92EF9266
:10278000FF920F931F93CF93DF93EB0167017801C3
:1027900060910B0270910C027093B5076093B407BF
:1027A0006091BD077091BE077093B3076093B20745
:1027B00062E060930A0266E37BE370930C0260932D
:1027C0000B029093B1078093B007D093AF07C093EB
:1027D000AE07CA01B9010E94C5F06093AA077093C1
:1027E000AB078093AC079093AD07C701B6010E9479
:1027F000C5F06093A6077093A7078093A8079093EE
:10280000A907688179818A819B810E94CAF06093BF
:10281000BD077093BE078093BF079093C007DF91F9
:10282000CF911F910F91FF90EF90DF90CF9008957F
:102830008F929F92AF92BF92CF92DF92EF92FF92D0
:102840000F931F93CF93DF93EB0149015A01670167
:10285000780120910B0230910C023093B507209340
:10286000B4072091BD073091BE073093B307209382
:10287000B20722E020930A0225EB3DE330930C02DD
:1028800020930B029093B1078093B0077093AF072A
:102890006093AE0720E030E048EC52E4C501B4019B
:1028A0000E942BF30E94C5F06093AA077093AB07B8
:1028B0008093AC079093AD0720E030E048EC52E401
:1028C000C701B6010E942BF30E94C5F06093A607D2
:1028D0007093A7078093A8079093A90720E030E0A2
:1028E00048EC52E4688179818A819B810E942BF3B4
:1028F0000E94CAF06093BD077093BE078093BF0724
:102900009093C007DF91CF911F910F91FF90EF90AF
:10291000DF90CF90BF90AF909F908F9008950F93CE
:102920001F93CF93DF93EB01142F022F482F60E00A
:102930008CEC97E00E94D3E7612F8CEC97E00E942B
:102940002FEF11E1FE016491662311F0111117C000
:10295000112339F060E28CEC97E00E942FEF1150C8
:10296000F7CF602F8CEC97E00E942FEF60E28CECA9
:1029700097E0DF91CF911F910F910C942FEF8CEC8A
:1029800097E00E942FEF21961150DCCFEF92FF923B
:102990000F931F93CF93DF93EB01E42E8901F9018D
:1029A00001900020E9F7F22EFE1A92E1F90E482F6D
:1029B00060E08CEC97E00E94D3E76E2D8CEC97E002
:1029C0000E942FEFFE016491662311F0F11019C0EF
:1029D0006AE38CEC97E00E942FEFFF2039F060E271
:1029E0008CEC97E00E942FEFFA94F7CFB8018CECB3
:1029F00097E0DF91CF911F910F91FF90EF900C9492
:102A00002EEF8CEC97E00E942FEF2196FA94DACF0C
:102A10008CEC97E00E94CEE740E060E08CEC97E021
:102A20000E94D3E76EE573E08CEC97E00E942EEFF6
:102A300041E060E08CEC97E00E94D3E76DE673E044
:102A40008CEC97E00E942EEF42E060E08CEC97E087
:102A50000E94D3E765E773E08CEC97E00E942EEFCD
:102A600043E060E08CEC97E00E94D3E764E873E019
:102A70008CEC97E00E942EEFFFCF87E493E10E9459
:102A8000AD831092C60708950F931F93CF93DF93E2
:102A9000CDB7DEB7C154D1090FB6F894DEBF0FBE73
:102AA000CDBF6091311370913213809133139091A7
:102AB00034138E010D5C1F4F23E041E00E949AF415
:102AC00068E973E0CE0101960E94FCF76CE973E0BF
:102AD000CE0101960E94DDF767EA73E0CE01019610
:102AE0000E94DDF781E492E00E943E9B62E370E089
:102AF00080E090E00E94CEEACE0101960E94CB9A3F
:102B0000CF5BDF4F0FB6F894DEBF0FBECDBFDF91B6
:102B1000CF911F910F910895CF9382E080930A0285
:102B20000E949FEA6C507E4F8F4F9F4F6093C20769
:102B30007093C3078093C4079093C507539AC4E664
:102B40005B9A84EF91E00E94F3EA5B9884EF91E056
:102B50000E94F3EAC150A1F7CF9108958091E50753
:102B6000811114C08091AC029091AD020B973CF0A2
:102B700081E090E09093E7078093E60704C010920D
:102B8000E7071092E60781E08093E5078091BD0793
:102B90009091BE07A091BF07B091C0070097A10513
:102BA000B10549F12091E6073091E707280F391F59
:102BB000223031052CF43093E7072093E60706C056
:102BC00081E090E09093E7078093E6078091E60725
:102BD0009091E70797FF04C01092E7071092E6076D
:102BE0001092BD071092BE071092BF071092C00747
:102BF00081E080930A028091C70782FF25C08091FF
:102C0000E6079091E707892B19F48AED93E002C05B
:102C100081ED93E00E943E9B81E080930A027CDF7D
:102C20000E94FCDE8CED97E490930C0280930B02E3
:102C30001092BD071092BE071092BF071092C007F6
:102C40001092E7071092E60780910A028823A9F004
:102C500041E060E08CEC97E00E94D3E78091E607CA
:102C60009091E707892B19F46FEA73E002C06BEBD0
:102C700073E08CEC97E00C942EEF0895CF92DF92E6
:102C8000EF92FF920F931F93CF93DF938091BD0735
:102C90009091BE07A091BF07B091C00781309048C6
:102CA000A105B10540F01092BD071092BE07109229
:102CB000BF071092C0078091BD079091BE07A091F9
:102CC000BF07B091C007B695A79597958795409196
:102CD000C60750E060E070E084179507A607B707C5
:102CE00010F48093C607D091C6071091C70712FB56
:102CF000112710F9C0E0B7E0CB2ED12CE12CF12C3C
:102D000001E04091BD075091BE076091BF077091EF
:102D1000C007D11125C080910A02882369F023E001
:102D2000423051056105710510F443E001C040E2F5
:102D30006AE972E08C2FF3DD112309F4A8C08091B9
:102D4000BD079091BE07A091BF07B091C007029741
:102D5000A105B10508F09BC0DFDE83E69EE18AC0D5
:102D6000D13069F580910A02882389F076956795BC
:102D7000579547952EE7413051056105710511F4CE
:102D80004EE301C040E260E972E08C2FC8DD112300
:102D900009F47DC08091BD079091BE07A091BF0747
:102DA000B091C007B695A795979587950197A1050E
:102DB000B10509F06CC0B0DE85E399E15BC0D230AB
:102DC00069F580910A02882389F076956795579571
:102DD00047952EE7423051056105710511F44EE328
:102DE00001C040E267E872E08C2F99DD112309F4FD
:102DF0004EC08091BD079091BE07A091BF07B091D2
:102E0000C007B695A795979587950297A105B10537
:102E100009F03DC081DE88E299E12CC0D330B9F5DC
:102E200080910A02882389F0769567955795479592
:102E30002EE7433051056105710511F44EE301C0E1
:102E400040E26CE772E08C2F6ADD112301F1809182
:102E5000BD079091BE07A091BF07B091C007B6957E
:102E6000A795979587950397A105B10581F454DE41
:102E70008BE199E190930C0280930B021092BD07B5
:102E80001092BE071092BF071092C00737C0809102
:102E9000BD079091BE07A091BF07B091C0070897EA
:102EA000A105B10540F0C092BD07D092BE07E092E7
:102EB000BF07F092C0074091BD075091BE076091D7
:102EC000BF077091C0077695679557954795809194
:102ED000C60790E00396242F30E0821793074CF446
:102EE0008DEF840F8093C60700930A02DCEFD40FA6
:102EF000CFEFCF5FDF5FC43008F403CFDF91CF9116
:102F00001F910F91FF90EF90DF90CF9008950F9356
:102F10001F93CF93DF938091BD079091BE07A0913F
:102F2000BF07B091C00781309048A105B10540F0BE
:102F30001092BD071092BE071092BF071092C007F3
:102F40008091BD079091BE07A091BF07B091C007C7
:102F5000B695A795979587954091C60750E060E094
:102F600070E084179507A607B70710F48093C6078B
:102F7000D091C6071091C70712FB112710F9C0E0C6
:102F800001E04091BD075091BE076091BF0770916D
:102F9000C007D11125C080910A02882369F023E07F
:102FA000423051056105710510F443E001C040E273
:102FB00062E772E08C2FB3DC112309F49BC080918F
:102FC000BD079091BE07A091BF07B091C0070297BF
:102FD000A105B10508F08EC09FDD8EE396E1CFC05C
:102FE000D13069F580910A02882389F0769567953A
:102FF000579547952EE7413051056105710511F44C
:103000004EE301C040E26BE672E08C2F88DC1123B6
:1030100009F470C08091BD079091BE07A091BF07D1
:10302000B091C007B695A795979587950197A1058B
:10303000B10509F05FC070DD8CE999E3A0C0D23022
:1030400061F580910A02882389F0769567955795F6
:1030500047952EE7423051056105710511F44EE3A5
:1030600001C040E264E672E08C2F59DC112309F4C0
:1030700041C08091BD079091BE07A091BF07B0915C
:10308000C007B695A795979587950297A105B105B5
:1030900089F542DD86EC98E372C0D33059F5809112
:1030A0000A02882389F076956795579547952EE70C
:1030B000433051056105710511F44EE301C040E252
:1030C0006DE572E08C2F2BDC1123A1F08091BD0700
:1030D0009091BE07A091BF07B091C007B695A79584
:1030E000979587950397A105B10521F415DD8BEE22
:1030F00097E345C020E030E040E251E4609198075A
:103100007091990780919A0790919B070E9456F0C1
:1031100087FF42C0D43011F025E03FC080910A0201
:103120008823C1F08091BD079091BE07A091BF0791
:10313000B091C007B695A795979587952EE7049708
:10314000A105B10511F44EE301C040E264E572E06F
:103150008C2FE5DB112301F38091BD079091BE0711
:10316000A091BF07B091C007B695A7959795879591
:103170000497A105B10581F6CFDC8BE497E390932A
:103180000C0280930B021092BD071092BE071092A2
:10319000BF071092C0074AC024E04091BD0750917C
:1031A000BE076091BF077091C007769567955795E8
:1031B0004795822F90E0A0E0B0E0481759076A07D2
:1031C0007B0788F0822F90E0880F991F0197AA272C
:1031D00097FDA095BA2F8093BD079093BE07A0934B
:1031E000BF07B093C0074091BD075091BE076091E3
:1031F000BF077091C0077695679557954795809161
:10320000C60790E00396242F30E0821793074CF412
:103210008DEF840F8093C60700930A02DCEFD40F72
:10322000CFEFCF5FDF5FC43008F4ABCEDF91CF913B
:103230001F910F9108958DEC9CECACECBDE3809355
:10324000980790939907A0939A07B0939B075FCE36
:1032500080E090E0A0E8BFE38093980790939907FF
:10326000A0939A07B0939B0752CE80E090E0A0E233
:10327000B1E48093980790939907A0939A07B0932D
:103280009B0745CECF93DF93CDB7DEB7C054D109AE
:103290000FB6F894DEBF0FBECDBF88E0E1EEF2E0DE
:1032A000DE01D99601900D928A95E1F788E0E9EE6A
:1032B000F2E0DE01D19601900D928A95E1F788E067
:1032C000E1EFF2E0DE01999601900D928A95E1F727
:1032D00088E0E9EFF2E0DE01919601900D928A9587
:1032E000E1F788E0E1E0F3E0DE01599601900D920C
:1032F0008A95E1F788E0E9E0F3E0DE01519601907C
:103300000D928A95E1F788E0E1E1F3E0DE0119969C
:1033100001900D928A95E1F788E0E9E1F3E0DE01A2
:10332000119601900D928A95E1F720E044E064E166
:103330008CEC97E00E94EBE7AE01475C5F4F60E0EA
:103340008CEC97E00E9490E8AE014F5C5F4F61E02B
:103350008CEC97E00E9490E8AE01475D5F4F62E021
:103360008CEC97E00E9490E8AE014F5D5F4F63E008
:103370008CEC97E00E9490E8AE01475E5F4F65E0FD
:103380008CEC97E00E9490E8AE014F5E5F4F66E0E4
:103390008CEC97E00E9490E8AE01475F5F4F67E0DA
:1033A0008CEC97E00E9490E8AE014F5F5F4F64E0C5
:1033B0008CEC97E00E9490E88CEC97E00E94CEE7BE
:1033C000C05CDF4F0FB6F894DEBF0FBECDBFDF91FC
:1033D000CF9108950E949FEA6093791270937A12B8
:1033E00080937B1290937C128091F2079091F30767
:1033F00090936908809368088091F0079091F10795
:1034000090936708809366088091EE079091EF078C
:103410009093B3128093B21246D90C947A540E94BE
:103420009FEA6093791270937A1280937B12909343
:103430007C128091EC079091ED079093690880933E
:1034400068088091EA079091EB0790936708809352
:1034500066088091E8079091E9079093B3128093F2
:10346000B21221D90C947A546091A0077091A107EF
:103470008091A2079091A3070E94165B60933C0283
:1034800070933D0280933E0290933F020C948250D1
:1034900060919C0770919D0780919E0790919F0776
:1034A0000E94225B609338027093390280933A0243
:1034B00090933B020C94825040E060E08CEC97E0EB
:1034C0000E94D3E767EC73E08CEC97E00E942EEF4C
:1034D00041E060E08CEC97E00E94D3E76CED73E094
:1034E0008CEC97E00E942EEF42E060E08CEC97E0DD
:1034F0000E94D3E761EF73E08CEC97E00E942EEF1F
:1035000043E060E08CEC97E00E94D3E764E08CEC51
:1035100097E00E942FEF66E074E08CEC97E00E9449
:103520002EEF8091C70782FF13C0F6DA8CEC97E08C
:103530000E94CEE786E19DE490930C0280930B02FB
:103540001092BD071092BE071092BF071092C007DD
:1035500008958F929F92AF92BF92DF92EF92FF9267
:103560000F931F93CF93DF931092E4078091BD07D1
:103570009091BE07A091BF07B091C00781309048DD
:10358000A105B10540F01092BD071092BE07109240
:10359000BF071092C0078091BD079091BE07A09110
:1035A000BF07B091C007B695A795979587954091AD
:1035B000C60750E060E070E084179507A607B707DC
:1035C00010F48093C607D091C6071091C70712FB6D
:1035D000112710F9C0E0DD24D394D1112AC08091C5
:1035E0000A028823A1F08091BD079091BE07A091A7
:1035F000BF07B091C00723E00297A105B10510F401
:1036000043E001C040E263E578E08C2F88D91123C4
:1036100081F08091BD079091BE07A091BF07B09146
:10362000C0070297A105B10520F476DA86E19DE492
:103630002DC00E94EE734091BD075091BE0760916E
:10364000BF077091C007811104C08091491388237E
:10365000E1F1D130E1F580910A02811124C01123FA
:1036600009F468C08091BD079091BE07A091BF0783
:10367000B091C007B695A795979587950197A10535
:10368000B10509F057C048DA8DE39FE290930C0230
:1036900080930B021092BD071092BE071092BF07D5
:1036A0001092C007ADC276956795579547952EE75E
:1036B000413051056105710511F44EE301C040E24E
:1036C0006EE478E08C2F2BD9CACFD13069F1D2309B
:1036D00089F580910A02882389F076956795579538
:1036E00047952EE7423051056105710511F44EE30F
:1036F00001C040E264E378E08C2F11D91123D1F0AE
:103700008091BD079091BE07A091BF07B091C007FF
:10371000B695A795979587950297A105B10551F4A0
:10372000FBD984E094E2B2CF80910A0281113FC2BA
:10373000111150C280914A134091BD075091BE07AC
:103740006091BF077091C007882309F472C180910E
:103750001815882309F4F3C080914913882309F4CC
:1037600067C0D33059F580910A02882389F0769595
:1037700067955795479520E24330510561057105DE
:1037800011F44EE301C040E268E278E08C2FC7D824
:103790001123A1F08091BD079091BE07A091BF07B2
:1037A000B091C007B695A795979587950397A10502
:1037B000B10521F4B1D984E298E0F4C08091F4120B
:1037C000811138C0D430C1F580910A028823C1F03C
:1037D0008091BD079091BE07A091BF07B091C0072F
:1037E000B695A7959795879520E20497A105B10511
:1037F00011F44EE301C040E261E178E08C2F8FD8F4
:10380000112309F458C08091BD079091BE07A09183
:10381000BF07B091C007B695A79597958795049770
:10382000A105B10509F047C077D98CE098E0BAC08E
:1038300003E003C004E001C005E00D133DC080912A
:103840000A028823E9F08091BD079091BE07A091FC
:10385000BF07B091C007B695A79597958795402F5C
:1038600050E060E070E020E284179507A607B707F4
:1038700011F44EE301C040E26EEF77E08C2F4FD899
:103880001123D1F08091BD079091BE07A091BF0791
:10389000B091C007B695A79597958795402F50E0B2
:1038A00060E070E084179507A607B70729F434D9BC
:1038B0008BEF97E077C005E0EE24E394E00EED1285
:1038C0003CC080910A028823E9F08091BD07909165
:1038D000BE07A091BF07B091C007B695A795979571
:1038E00087958D2E912CA12CB12C2EE7881599054A
:1038F000AA05BB0511F44EE301C040E260EF77E09A
:103900008C2F0DD81123C9F08091BD079091BE076F
:10391000A091BF07B091C007B695A79597958795D9
:103920004E2D50E060E070E084179507A607B707BA
:1039300021F4F2D88AE394E3A9CE0E5FABC0809164
:10394000B5128823E1F1D330E1F580910A02882392
:1039500091F0769567955795479520E2433051054C
:103960006105710511F44EE301C040E263EE77E0BA
:103970008C2F0E948F14112309F458C08091BD0729
:103980009091BE07A091BF07B091C007B695A795CB
:10399000979587950397A105B10509F047C0BCD855
:1039A00080EE97E0DF91CF911F910F91FF90EF9004
:1039B000DF90BF90AF909F908F900C943E9B03E060
:1039C00001C004E00D1333C080910A028823B1F0D6
:1039D0007695679557954795802F90E0A0E0B0E0E9
:1039E0002EE7481759076A077B0711F44EE301C019
:1039F00040E262ED77E08C2F0E948F141123B9F022
:103A00008091BD079091BE07A091BF07B091C007FC
:103A1000B695A79597958795402F50E060E070E0A8
:103A200084179507A607B70711F42FC004E00F5FAE
:103A300031C0D33071F580910A02882391F07695D8
:103A40006795579547952EE74330510561057105F8
:103A500011F44EE301C040E267EC77E08C2F0E9446
:103A60008F14112309F455C08091BD079091BE07B2
:103A7000A091BF07B091C007B695A7959795879578
:103A80000397A105B10509F044C046D889E291E247
:103A9000FDCD04E00D133EC080910A028823F1F0B1
:103AA0008091BD079091BE07A091BF07B091C0075C
:103AB000B695A79597958795402F50E060E070E008
:103AC0002EE784179507A607B70711F44EE301C048
:103AD00040E262EC77E08C2F0E948F141123D1F02A
:103AE0008091BD079091BE07A091BF07B091C0071C
:103AF000B695A79597958795402F50E060E070E0C8
:103B000084179507A607B70729F406D88CE59AE12C
:103B1000BDCD04E0FF24F394F00E8091BD07909199
:103B2000BE07A091BF07B091C007B695A79597951E
:103B300087954F2D50E060E070E084179507A60749
:103B4000B70788F08F2D90E0880F991F0197AA275B
:103B500097FDA095BA2F8093BD079093BE07A093C1
:103B6000BF07B093C0074091BD075091BE07609159
:103B7000BF077091C00776956795579547958091D7
:103B8000C60790E00396242F30E0821793074CF489
:103B90008DEF840F8093C607D0920A02DCEFD40F1A
:103BA000CFEFCF5FDF5FC43008F417CD29C0769523
:103BB0006795579547952EE7413051056105710589
:103BC00011F44EE301C040E266E478E08C2F0E94DD
:103BD0008F14AECD8091BD079091BE07A091BF0715
:103BE000B091C007B695A795979587950197A105C0
:103BF000B10509F09FCD0E948C1583E69EE146CD6C
:103C0000DF91CF911F910F91FF90EF90DF90BF90C8
:103C1000AF909F908F90089520910B0230910C02ED
:103C20003093B5072093B4072091BD073091BE07AC
:103C30003093B3072093B20722E020930A0220E0DA
:103C40003FE330930C0220930B029093B1078093D3
:103C5000B0077093AF076093AE0781E090E0A0E0FB
:103C6000B0E08093AA079093AB07A093AC07B09302
:103C7000AD078EED93E0A0E0B0E08093A6079093AF
:103C8000A707A093A807B093A907FB0160817181E2
:103C9000828193810E94F6F02AE037ED43E25CE3F3
:103CA0000E942BF30E94CAF06093BD077093BE0779
:103CB0008093BF079093C0078EEF93E79093A5077B
:103CC0008093A40708950F931F93CF93DF93809160
:103CD000BD079091BE07A091BF07B091C00781308A
:103CE0009048A105B10540F01092BD071092BE07A3
:103CF0001092BF071092C0078091BD079091BE0738
:103D0000A091BF07B091C007B695A79597958795E5
:103D10004091C60750E060E070E084179507A60761
:103D2000B70710F48093C607D091C6071091C70754
:103D300012FB112710F9C0E001E04091BD0750913E
:103D4000BE076091BF077091C007D11127C0809155
:103D50000A02882371F023E04230510561057105A4
:103D600010F443E001C040E26CEC73E08C2F0E9441
:103D70008F14112309F47BC18091BD079091BE0778
:103D8000A091BF07B091C0070297A105B10508F047
:103D90006EC10E948C1589EA9AE15CC1D13079F537
:103DA00080910A02882391F07695679557954795FB
:103DB00020E2413051056105710511F44EE301C067
:103DC00040E26BEB73E08C2F0E948F14112309F4F7
:103DD0004EC18091BD079091BE07A091BF07B091E1
:103DE000C007B695A795979587950197A105B10549
:103DF00009F03DC10E948C1587EB93E030C0D230B2
:103E0000A1F580910A02882391F0769567955795E0
:103E1000479520E2423051056105710511F44EE3EA
:103E200001C040E26DEA73E08C2F0E948F141123D1
:103E300009F41DC18091BD079091BE07A091BF07F5
:103E4000B091C007B695A795979587950297A1055C
:103E5000B10509F00CC10E948C1589EA93E0DF914D
:103E6000CF911F910F910C943E9BD33079F58091A7
:103E70000A02882391F0769567955795479520E239
:103E8000433051056105710511F44EE301C040E274
:103E900064EA73E08C2F0E948F14112309F4E7C0A9
:103EA0008091BD079091BE07A091BF07B091C00758
:103EB000B695A795979587950397A105B10509F044
:103EC000D6C00E948C158FE993E0C9CFD43091F50C
:103ED00080910A02882391F07695679557954795CA
:103EE00020E2443051056105710511F44EE301C033
:103EF00040E261E973E08C2F0E948F14112309F4D2
:103F0000B6C08091BD079091BE07A091BF07B09148
:103F1000C007B695A795979587950497A105B10514
:103F200009F0A5C00E948C15DF91CF911F910F91D0
:103F30000C944415D53079F580910A02882391F0CC
:103F400076956795579547952EE74530510561055C
:103F5000710511F44EE301C040E267E873E08C2F75
:103F60000E948F14112309F482C08091BD079091A3
:103F7000BE07A091BF07B091C007B695A7959795CA
:103F800087950597A105B10509F071C00E948C15B0
:103F90008EE396E15FC0D63079F580910A028823DE
:103FA00091F076956795579547952EE746305105E0
:103FB0006105710511F44EE301C040E26AE773E068
:103FC0008C2F0E948F14112309F451C08091BD07DA
:103FD0009091BE07A091BF07B091C007B695A79575
:103FE000979587950697A105B10509F040C00E94F5
:103FF0008C1580E896E32EC0D730C9F580910A026F
:10400000882391F076956795579547952EE7473029
:1040100051056105710511F44EE301C040E26AE605
:1040200073E08C2F0E948F14112309F18091BD073A
:104030009091BE07A091BF07B091C007B695A79514
:10404000979587950797A105B10589F40E948C156E
:104050008CED95E390930C0280930B021092BD07B8
:104060001092BE071092BF071092C007EDC080915A
:10407000F41281119FC08091BD079091BE07A0915D
:10408000BF07B091C007D83081F520910A022223E2
:1040900089F0B695A7959795879520E20897A10591
:1040A000B10511F44EE301C040E26EE573E08C2FE0
:1040B0000E948F14111102C02BE07DC08091BD07BA
:1040C0009091BE07A091BF07B091C007B695A79584
:1040D000979587950897A105B10571F70E948C15F2
:1040E000DF91CF911F910F9175C9D93079F520914A
:1040F0000A02222389F0B695A7959795879520E225
:104100000997A105B10511F44EE301C040E262E553
:1041100073E08C2F0E948F14112371F28091BD07E0
:104120009091BE07A091BF07B091C007B695A79523
:10413000979587950997A105B10509F0BDCF0E9414
:104140008C15DF91CF911F910F9169C9DA3009F079
:10415000B3CF20910A02222389F0B695A7959795AF
:10416000879520E20A97A105B10511F44EE301C03D
:1041700040E269E473E08C2F0E948F14112309F44C
:104180009BCF8091BD079091BE07A091BF07B091D2
:10419000C007B695A795979587950A97A105B1058C
:1041A00009F08ACF0E948C15DF91CF911F910F915A
:1041B0000C94621328E04091BD075091BE076091B6
:1041C000BF077091C0077695679557954795822FE1
:1041D00090E0A0E0B0E0481759076A077B0788F035
:1041E000822F90E0880F991F0197AA2797FDA0952D
:1041F000BA2F8093BD079093BE07A093BF07B093DB
:10420000C0074091BD075091BE076091BF077091F4
:10421000C00776956795579547958091C60790E0BA
:104220000396242F30E0821793074CF48DEF840F10
:104230008093C60700930A02DCEFD40FCFEFCF5F65
:10424000DF5FC43008F479CDDF91CF911F910F91DA
:1042500008952F923F924F925F926F927F928F922A
:104260009F92AF92BF92CF92DF92EF92FF920F9305
:104270001F93CF93DF93CDB7DEB76E970FB6F89449
:10428000DEBF0FBECDBF80910A02811104C08091B4
:10429000C70782FFA0C287E493E10E94A1824091F8
:1042A000BD075091BE076091BF077091C0074130B4
:1042B00050486105710540F01092BD071092BE078D
:1042C0001092BF071092C0074091BD075091BE07E2
:1042D0006091BF077091C007769567955795479590
:1042E0000091C60710E020E030E040175107620758
:1042F000730710F44093C6078090C6077090C707F5
:1043000072FA772470F8912C332433942C0121E035
:10431000421A5108811038C080910A028823A9F0FE
:104320008091BD079091BE07A091BF07B091C007D3
:1043300023E00297A105B10510F443E001C040E27B
:104340006DEB77E0892D0E948F147720E9F0809142
:10435000BD079091BE07A091BF07B091C00702971B
:10436000A105B10588F40E948C1589EA9AE1909321
:104370000C0280930B021092BD071092BE071092A0
:10438000BF071092C00727C26BE473E18BE993E18A
:104390000E94E58C80914B138F3229F081E08816C2
:1043A00061F022E001C021E08201C82CD12CE12C77
:1043B000F12C66246394680C4BC080910A02882318
:1043C000C9F08091BD079091BE07A091BF07B09141
:1043D000C007B695A7959795879520E20197A10507
:1043E000B10511F44EE301C040E269EB77E0892D9D
:1043F0000E948F147720A9F28091BD079091BE078B
:10440000A091BF07B091C007B695A79597958795DE
:104410000197A105B10529F60E948C150E943D1552
:10442000DAC1281170C140E050E0B80187E493E19F
:104430000E94997E9091731380910A02992309F446
:10444000B2C081110AC0711075C0262D015011092A
:104450000F3FFFEF1F0729F758C18091BD079091CB
:10446000BE07A091BF07B091C007B695A7959795D5
:104470008795492D60E08C159D05AE05BF0569F552
:104480008CEC97E00E94D3E76EE38CEC97E00E94FF
:104490002FEF65E08CEC97E00E942FEF809158138E
:1044A000882329F010926A1388E593E102C08BE417
:1044B00093E15C01A2E12A2EF50161915F0166237F
:1044C00011F0211070C1222009F4BDCF60E28CEC04
:1044D00097E00E942FEF2A94F6CF8CEC97E00E9491
:1044E000D3E760E28CEC97E00E942FEF65E08CEC64
:1044F00097E00E942FEF80915813882329F01092A3
:104500006A1388E593E102C08BE493E15C01F2E178
:104510002F2EF50161915F01662311F0211049C131
:10452000222009F490CF60E28CEC97E00E942FEFFC
:104530002A94F6CF8091BD079091BE07A091BF0746
:10454000B091C007B695A795979587958C159D0551
:10455000AE05BF0509F079CF0E948C150BE413E17D
:104560001F930F938BEB92E19F938F930E9420F800
:10457000F80101900020E9F7EC54F341EB54FD4EB3
:104580001682B80187E493E10E9404831092BD076C
:104590001092BE071092BF071092C0070F900F90A5
:1045A0000F900F9018C1811103C0711063C04DCFDF
:1045B0008091BD079091BE07A091BF07B091C00741
:1045C000B695A79597958795492D60E08C159D0523
:1045D000AE05BF0539F58CEC97E00E94D3E76EE39A
:1045E0008CEC97E00E942FEF80915813882329F0DC
:1045F00010926B1388E593E102C08BE493E15C01B8
:1046000063E1262EF50161915F01662311F021100F
:10461000D6C0222051F260E28CEC97E00E942FEF8E
:104620002A94F7CF8CEC97E00E94D3E760E28CEC01
:1046300097E00E942FEF80915813882329F0109261
:104640006B1388E593E102C08BE493E15C0153E1D5
:10465000252EF50161915F01662311F02110B5C08F
:10466000222009F4A2CF60E28CEC97E00E942FEFA9
:104670002A94F6CF8091BD079091BE07A091BF0705
:10468000B091C007B695A795979587958C159D0510
:10469000AE05BF0509F0D9CE0E948C158BE493E1DD
:1046A0009F938F9382EB97E09F938F938E010F5F81
:1046B0001F4F1F930F930E944EF80F900F900F9073
:1046C0000F900F900F907E01F5E0EF0EF11CF701B7
:1046D0008081882349F0992787FD90950E945BF798
:1046E000F70181937F01F3CFC8010E94CB9A8EEA34
:1046F00097E00E943E9B1092421381E080933F130B
:104700000E94531368C02F5FA1CE8091BD07909186
:10471000BE07A091BF07B091C007B695A795979522
:104720008795422F50E060E070E084179507A60758
:10473000B70788F0822F90E0880F991F0197AA276A
:1047400097FDA095BA2F8093BD079093BE07A093C5
:10475000BF07B093C0078091BD079091BE07A0919D
:10476000BF07B091C007B695A795979587952091FB
:10477000C60730E02D5F3F4F482F50E02417350724
:104780005CF42DEF280F2093C60730920A021CEF2D
:10479000812E880E99249A949394839423E029156A
:1047A00008F0B8CD18C08CEC97E00E942FEF2A9447
:1047B00083CE8CEC97E00E942FEF2A94AACE8CEC4B
:1047C00097E00E942FEF2A941DCF8CEC97E00E9477
:1047D0002FEF2A943ECF6E960FB6F894DEBF0FBE31
:1047E000CDBFDF91CF911F910F91FF90EF90DF90A0
:1047F000CF90BF90AF909F908F907F906F905F9081
:104800004F903F902F9008958F929F92AF92BF92BA
:10481000EF92FF920F931F93CF93DF938091BD0789
:104820009091BE07A091BF07B091C007813090481A
:10483000A105B10540F01092BD071092BE0710927D
:10484000BF071092C0078091BD079091BE07A0914D
:10485000BF07B091C007B695A795979587954091EA
:10486000C60750E060E070E084179507A607B70719
:1048700010F48093C607D091C6071091C70712FBAA
:10488000112710F9C0E0FF24F394D1112CC08091BE
:104890000A028823A9F08091BD079091BE07A091DC
:1048A000BF07B091C00723E00297A105B10510F43E
:1048B00043E001C040E261E877E08C2F0E948F1452
:1048C000112389F08091BD079091BE07A091BF0789
:1048D000B091C0070297A105B10528F40E948C157C
:1048E00089EA9AE1DCC12091F4128091BD07909190
:1048F000BE07A091BF07B091C007211130C0D130D1
:1049000081F520910A02222389F0B695A795979503
:1049100087952EE70197A105B10511F44EE301C07B
:1049200040E265E777E08C2F0E948F14112309F491
:1049300051C08091BD079091BE07A091BF07B09173
:10494000C007B695A795979587950197A105B105DD
:1049500009F040C00E948C158CED97E4A0C101E0E5
:1049600001C002E00D1337C020910A022223B1F0EA
:10497000B695A79597958795402F50E060E070E039
:104980002EE784179507A607B70711F44EE301C079
:1049900040E26EE677E08C2F0E948F141123D9F04D
:1049A0008091BD079091BE07A091BF07B091C0074D
:1049B000B695A79597958795402F50E060E070E0F9
:1049C00084179507A607B70731F40E948C158BEE64
:1049D0009FE365C102E0EE24E394E00E8091491369
:1049E00081116DC1ED123EC080910A028823F1F061
:1049F0008091BD079091BE07A091BF07B091C007FD
:104A0000B695A795979587954D2F50E060E070E09B
:104A10002EE784179507A607B70711F44EE301C0E8
:104A200040E26CE577E08C2F0E948F141123D1F0C7
:104A30008091BD079091BE07A091BF07B091C007BC
:104A4000B695A795979587954E2D50E060E070E05C
:104A500084179507A607B70729F40E948C1581E9EA
:104A600095E31DC142E0E42EE00EED123EC08091C0
:104A70000A028823F1F08091BD079091BE07A091B2
:104A8000BF07B091C007B695A795979587958D2ECE
:104A9000912CA12CB12C2EE788159905AA05BB05F0
:104AA00011F44EE301C040E26CE477E08C2F0E94E9
:104AB0008F141123D1F08091BD079091BE07A09172
:104AC000BF07B091C007B695A795979587954E2DCE
:104AD00050E060E070E084179507A607B70729F457
:104AE0000E948C158EE095E3DAC0F3E0EF2EE00E25
:104AF000ED1247C080910A028823F1F08091BD0732
:104B00009091BE07A091BF07B091C007B695A79539
:104B1000979587958D2E912CA12CB12C20E288158C
:104B20009905AA05BB0511F44EE301C040E26FE30D
:104B300077E08C2F0E948F14112319F18091BD070B
:104B40009091BE07A091BF07B091C007B695A795F9
:104B5000979587954E2D50E060E070E0841795079B
:104B6000A607B70771F40E948C15DF91CF911F91B2
:104B70000F91FF90EF90BF90AF909F908F900C940B
:104B8000FCDE64E0E62EE00EED1247C080910A02E2
:104B90008823F1F08091BD079091BE07A091BF07D7
:104BA000B091C007B695A795979587958D2E912CB6
:104BB000A12CB12C20E288159905AA05BB0511F49A
:104BC0004EE301C040E263E377E08C2F0E948F1434
:104BD000112319F18091BD079091BE07A091BF07E5
:104BE000B091C007B695A795979587954E2D50E043
:104BF00060E070E084179507A607B70771F40E947C
:104C00008C15DF91CF911F910F91FF90EF90BF9086
:104C1000AF909F908F900C9414E335E0E32EE00E5C
:104C2000ED124AC080910A028823F1F08091BD07FD
:104C30009091BE07A091BF07B091C007B695A79508
:104C4000979587954D2F50E060E070E02EE7841730
:104C50009507A607B70711F44EE301C040E262E2F0
:104C600077E08C2F0E948F14112331F14091BD0702
:104C70005091BE076091BF077091C0077695679508
:104C8000579547958E2D90E0A0E0B0E04817590762
:104C90006A077B0789F40E948C158DEB94E390934F
:104CA0000C0280930B021092BD071092BE07109267
:104CB000BF071092C0074CC086E0E82EE00E40917E
:104CC000BD075091BE076091BF077091C0077695F0
:104CD0006795579547958E2D90E0A0E0B0E0481776
:104CE00059076A077B0788F08E2D90E0880F991F7F
:104CF0000197AA2797FDA095BA2F8093BD0790939F
:104D0000BE07A093BF07B093C0074091BD07509165
:104D1000BE076091BF077091C0077695679557955C
:104D200047958091C60790E00396242F30E08217C4
:104D300093074CF48DEF840F8093C607F0920A021C
:104D4000DCEFD40FCFEFCF5FDF5FC43008F49DCD31
:104D5000DF91CF911F910F91FF90EF90BF90AF9097
:104D60009F908F9008952091E40721110AC044E19B
:104D700050E0BC018DE092E00E9411F882E0809347
:104D80000A0208952091E40721110AC044E150E08D
:104D9000BC018DE092E00E948BF782E080930A02D2
:104DA0000895F0DF81E08093E4070C945313109290
:104DB000E4070895CF92DF92EF92FF92CF93C2B3B0
:104DC000C695C17081E0C8278091090187FFC26044
:104DD000C090C207D090C307E090C407F090C50709
:104DE0000E949FEAC616D706E806F90610F44A9B09
:104DF00039C0C093C7078091C70781709091C707DA
:104E000091FD82609091C107891721F18130F1F005
:104E100028F0823089F08330A1F01CC0913021F459
:104E20009091F4079F5F05C09230A1F49091F40730
:104E300091509093F4070EC0992391F3933051F45D
:104E4000F5CF923069F3913029F4F0CF933041F3EC
:104E5000992361F38093C107CF91FF90EF90DF908A
:104E6000CF900895C460C5CFCF92DF92EF92FF92AA
:104E7000CF930E94421960E088E20E94E7E960E077
:104E80008AE20E94E7E9A19A9FB7F89480910B010A
:104E9000806880930B019FBF60E083E10E94E7E997
:104EA0005A9A60E086E20E94E7E95F9A89B18095AC
:104EB000881F8827881F8093BC077CDF1092F40727
:104EC0008091B612882309F46EC08091B5128823B0
:104ED00009F469C08CEC97E00E94CEE740E060E006
:104EE0008CEC97E00E94D3E764E08CEC97E00E94A2
:104EF0002FEF6AE174E08CEC97E00E942EEF41E026
:104F000060E08CEC97E00E94D3E76FE274E08CECF9
:104F100097E00E942EEF42E060E08CEC97E00E9468
:104F2000D3E764E474E08CEC97E00E942EEF43E05A
:104F300060E08CEC97E00E94D3E769E574E08CECCC
:104F400097E00E942EEF0E949FEAC0E043E06C2FA2
:104F50008CEC97E00E94D3E76AE874E08CEC97E071
:104F60000E942EEF0E949FEA6B017C0188EEC80E22
:104F700083E0D81EE11CF11C0E949FEA6C157D05A0
:104F80008E059F0520F44A99F7CF1092B612CF5F95
:104F9000C431E1F68CEC97E0CF91FF90EF90DF9079
:104FA000CF900C94CEE7CF91FF90EF90DF90CF9011
:104FB0000895CF92DF92EF92FF92FCDE89B1809547
:104FC000881F8827881F9091BC078917F1F082E01D
:104FD00080930A0289B18095881F8827881F809353
:104FE000BC070E9442198091BC07882339F087E4EE
:104FF00093E10E94597A8FEA91E006C087E493E139
:105000000E941F7B82EA91E0BDDEC090B707D0907E
:10501000B807E090B907F090BA070E949FEAC61659
:10502000D706E806F90608F090C08091F407482FEB
:10503000552747FD509557FF03C05195419551099C
:10504000443051058CF191E090930A0287FD8D5F09
:10505000482F45954595552747FD5095652F752F48
:105060008091BD079091BE07A091BF07B091C00786
:10507000840F951FA61FB71F8093BD079093BE078F
:10508000A093BF07B093C0071092F4070E949FEA55
:1050900060547B428E4F9F4F60938C0770938D07B7
:1050A00080938E0790938F078091C70782FF0EC071
:1050B0000E949FEA60547B428E4F9F4F60938C0703
:1050C00070938D0780938E0790938F07E0910B026A
:1050D000F0910C021995C0908C07D0908D07E0904C
:1050E0008E07F0908F070E949FEAC616D706E80643
:1050F000F90638F480910B0290910C0286519D4480
:10510000F1F480910A02823021F48CEC97E00E9445
:10511000CEE780910A02882319F0815080930A0219
:105120000E949FEA6C597F4F8F4F9F4F6093B70744
:105130007093B8078093B9079093BA0706C00E948E
:10514000531382E080930A02DCCFFF90EF90DF9050
:10515000CF9008958091C70782FB882780F9089532
:10516000FC01808190E02AE030E0B9010E9420F447
:10517000482FCB01B9010E9420F4805D80939007F5
:10518000405D409391071092920780E997E008955F
:1051900020E030E040E251E4FC01608171818281D5
:1051A00093810E942BF30E94C5F077FD02C02BE291
:1051B00001C02DE2209390079B0177FF04C02227B6
:1051C0003327261B370BC90168EE73E00E9420F4D9
:1051D000CB01EAE0F0E0BF010E9420F4805D809303
:1051E0009107C90164E670E00E9420F4CB01BF0181
:1051F0000E9420F4805D80939207C901BF010E9444
:1052000020F4282FCB01BF010E9420F4805D809301
:1052100093078EE280939407205D20939507109268
:10522000960780E997E008958F929F92AF92BF9280
:10523000CF92DF92EF92FF92CF9320E030E048ECE4
:1052400052E4FC0160817181828193810E942BF381
:105250000E94C5F06B017C0197FD12C020E137E28E
:1052600040E050E00E9455F4CA01B9012AE030E064
:1052700040E050E00E9455F4605D6093900703C0E9
:105280008DE280939007F7FE08C0F094E094D094EC
:10529000C094C11CD11CE11CF11CC701B60128EE51
:1052A00033E040E050E00E9455F46AE0862E912CF5
:1052B000A12CB12CCA01B901A50194010E9455F499
:1052C000605D60939107C701B60124E630E040E0DD
:1052D00050E00E9455F4CA01B901A50194010E9451
:1052E00055F4605D609392078EE280939307C70147
:1052F000B601A50194010E9455F4C62FCA01B90157
:10530000A50194010E9455F4605D60939407C05D0F
:10531000C09395071092960780E997E0CF91FF9090
:10532000EF90DF90CF90BF90AF909F908F900895B7
:10533000CF93DF938091BD079091BE07A091BF07E7
:10534000B091C007892B8A2B8B2B09F4FBC00E94DC
:10535000319C2091E5078091E6079091E7072111A4
:1053600013C02091BD073091BE07280F391F30931D
:10537000E7072093E607263031050CF4D8C01092D9
:10538000E7071092E607D3C08230910509F47BC08D
:105390005CF5009709F452C0019709F0C8C060910C
:1053A000BD077091BE07882777FD8095982F0E94D2
:1053B000F8F02AE037ED43E25CE30E942BF39B0117
:1053C000AC01609191027091920280919302909150
:1053D00094020E947DEF60939102709392028093F9
:1053E000930290939402A3C08330910509F46EC098
:1053F000049709F09CC06091BD077091BE07882793
:1054000077FD8095982F0E94F8F02AE037ED43E26F
:105410005CE30E942BF32091191330911A134091F1
:105420001B1350911C130E947DEF6093191370930E
:105430001A1380931B1390931C136AC06091BD07CD
:105440007091BE07882777FD8095982F0E94F8F00D
:105450002AE037ED43E25CE30E942BF39B01AC01B1
:1054600060919502709196028091970290919802B6
:105470000E947DEF6093950270939602809397024D
:105480009093980254C06091BD077091BE07882721
:1054900077FD8095982F0E94F8F02AE037ED43E2DF
:1054A0005CE30E942BF32091111330911213409171
:1054B0001313509114130E947DEF60931113709396
:1054C0001213809313139093141322C06091BD079D
:1054D0007091BE07882777FD8095982F0E94F8F07D
:1054E0002AE037ED43E25CE30E942BF32091151391
:1054F0003091161340911713509118130E947DEFAD
:1055000060931513709316138093171390931813C9
:1055100020E030E0A9010E9459F2181644F41092DC
:10552000111310921213109213131092141310925D
:10553000BD071092BE071092BF071092C00781E00E
:1055400080930A028091C70782FF4EC08091E507D1
:1055500091E089278093E50790930A02C6E9D0E09D
:105560005B9A61E070E080E090E00E94CEEA5B9898
:1055700061E070E080E090E00E94CEEA219781F740
:105580008091E6079091E707059774F11092E7077D
:105590001092E60768EC70E080E090E00E94CEEAAE
:1055A0000E948C15209191023091920240919302B9
:1055B00050919402609195027091960280919702A9
:1055C000909198020E94D79D8BEE9FE390930C02DE
:1055D00080930B021092BD071092BE071092BF0776
:1055E0001092C0071092E50780910A02882309F4FF
:1055F000A2C040E060E08CEC97E00E94D3E780918D
:10560000E6079091E707892B19F46EE674E002C073
:105610006DE774E08CEC97E00E942EEF85E992E054
:1056200003DEBC018CEC97E00E942EEF41E060E0CD
:105630008CEC97E00E94D3E78091E6079091E70712
:10564000019719F46CE874E002C06BE974E08CEC2B
:1056500097E00E942EEF81E992E0E6DDBC018CEC40
:1056600097E00E942EEF42E060E08CEC97E00E9411
:10567000D3E78091E6079091E707029719F46AEA69
:1056800074E002C06EEA74E08CEC97E00E942EEFAA
:1056900081E193E1C9DDBC018CEC97E00E942EEF23
:1056A0008091E6079091E707039719F462EB74E0A5
:1056B00002C066EB74E08CEC97E00E942EEF85E16F
:1056C00093E1B2DDBC018CEC97E00E942EEF43E049
:1056D00060E08CEC97E00E94D3E78091E607909120
:1056E000E707049719F46AEB74E002C06EEB74E00C
:1056F0008CEC97E00E942EEF89E193E195DDBC01EF
:105700008CEC97E00E942EEF43E06AE08CEC97E08F
:105710000E94D3E78091E6079091E707059719F477
:1057200062EC74E002C067E874E08CEC97E0DF9113
:10573000CF910C942EEFDF91CF910895FC018081E1
:105740009181843691055CF064E670E00E9420F45B
:10575000CB016AE070E00E9420F4805D01C080E22D
:1057600080939007808191818A3091055CF02AE0D6
:1057700030E0B9010E9420F4CB01B9010E9420F46D
:10578000805D01C080E280939107808191816AE011
:1057900070E00E9420F4805D80939207109293073E
:1057A00080E997E00895CF92DF92EF92FF920F93F6
:1057B0001F93CF93DF938091BD079091BE07A09177
:1057C000BF07B091C00781309048A105B10540F0F6
:1057D0001092BD071092BE071092BF071092C0072B
:1057E0008091BD079091BE07A091BF07B091C007FF
:1057F000B695A795979587954091C60750E060E0CC
:1058000070E084179507A607B70710F48093C607C2
:10581000D091C6071091C70712FB112710F9C0E0FD
:10582000B9E0CB2ED12CE12CF12C01E04091BD0749
:105830005091BE076091BF077091C007D11133C06E
:1058400080910A02882371F023E0423051056105FE
:10585000710510F443E001C040E26DE574E08C2F67
:105860000E948F14112309F412C18091BD079091F9
:10587000BE07A091BF07B091C0070297A105B1056F
:1058800008F005C10E948C158CED97E490930C02F2
:1058900080930B021092BD071092BE071092BF07B3
:1058A0001092C0072BC1D130D1F580910A02882314
:1058B000B9F0769567955795479588EE97E0413012
:1058C00051056105710521F439DF9C014EE303C0E8
:1058D00035DF9C0140E263E574E08C2F0E94C61422
:1058E000112309F4D4C08091BD079091BE07A09107
:1058F000BF07B091C007B695A79597958795019773
:10590000A105B10509F0C3C00E948C152AEA30E058
:105910004AE050E068EE77E089E494E03CC0D230A1
:1059200009F043C080910A028823B9F07695679503
:10593000579547958CEE97E042305105610571050A
:1059400021F4FCDE9C014EE303C0F8DE9C0140E242
:1059500062E474E08C2F0E94C614112309F497C0EE
:105960008091BD079091BE07A091BF07B091C0077D
:10597000B695A795979587950297A105B10509F06A
:1059800086C00E948C152DE131E040E050E06CEEC5
:1059900077E08BE394E0DF91CF911F910F91FF901F
:1059A000EF90DF90CF900C947313D330D1F58091AA
:1059B0000A028823B9F076956795579547958AEE40
:1059C00097E0433051056105710521F4B7DE9C0174
:1059D0004EE303C0B3DE9C0140E267E374E08C2F2A
:1059E0000E94C614112309F452C08091BD07909102
:1059F000BE07A091BF07B091C007B695A795979530
:105A000087950397A105B10509F041C00E948C1547
:105A100027E830E040E050E06AEE77E083E394E08E
:105A2000BACFD430A1F580910A02882391F07695FF
:105A300067955795479520E24430510561057105FA
:105A400011F44EE301C040E266E274E08C2F0E9444
:105A50008F141123E1F08091BD079091BE07A091B2
:105A6000BF07B091C007B695A795979587950497FE
:105A7000A105B10561F40E948C15DF91CF911F91B2
:105A80000F91FF90EF90DF90CF900C94FCDE80910F
:105A9000BD079091BE07A091BF07B091C0070A97BC
:105AA000A105B10540F0C092BD07D092BE07E092BB
:105AB000BF07F092C0074091BD075091BE076091AB
:105AC000BF077091C0077695679557954795809168
:105AD000C60790E00396242F30E0821793074CF41A
